:100000000C947F060C94AA060C94AA060C94AA06DB
:100010000C94AA060C94AA060C94AA060C94AA06A0
:100020000C94402C0C94AA060C94AA060C94AA06D4
:100030000C94AA060C94D0290C94AA060C94AA0637
:100040000C94AA060C94AA060C94AA060C94AA0670
:100050000C94172C0C94ED2B0C94AA060C94AA0665
:100060000C94AA060C94AA060C94AA060C94AA0650
:100070000C94AA060C94AA060C94AA060C94AA0640
:100080000C94AA060C94AA060C94AA060400040078
:10009000000407070400000000000002040404003C
:1000A000040407040400000004000000000004042D
:1000B000000404000000000000000400040400002C
:1000C0000400020204040002030400040400040407
:1000D00004040400000404040700040000020200F9
:1000E00004000004000404000404040004000000F0
:1000F000000000000001020102EB00531D0201009C
:1001000001320CC31603020002E900620E04000172
:10011000000000991D05020002EB003027060200D6
:1001200002E900122007020002E900441A08010057
:1001300001E800622909030003140CE4210A02000B
:1001400002E600DC100B0001000000A81D0C0600F8
:1001500006E000E8280D060006DA00B2230E0201D0
:10016000012D0C0C0C0F040003D700942410010087
:1001700001E8004E1E11010001E8001D17120500E4
:1001800005D200D91A13040004CE00001E14050085
:1001900005C900F626150400031C0CB21016050054
:1001A00005C900352717040004C500691C180300A1
:1001B00002230CFA0F19080008BD00FA101A0200F9
:1001C00002E600481C1B030003BA00D2261C0800EC
:1001D00008B2000C0F1D030002230CD40E1E0400F5
:1001E00004AE00360E1F030003280C241E2003005B
:1001F00002230CDA1221030002230CE22322000165
:10020000000000E12B23060006A8001910240001BD
:10021000000000A51D25030002230C8020260400F9
:1002200004A4004D11270001000000ED1D2804006A
:1002300003A100E319290500059C00031D2A030002
:1002400003250C8C232B00000000004D0C2C00011A
:1002500000000039172D030103140CE90B2E0300D5
:1002600002230CF00E2F060006A800172130010013
:1002700001320C510C31020102E600210C32030064
:100280000399008323330500059400C30C34020056
:1002900002E6002E2835030003280C020D3601006B
:1002A00001E800AA1037040004A400572038030016
:1002B00002230CCA1239040004A4001D263A0300CC
:1002C00002230C8B103B0500039100F3233C02003A
:1002D00002E9002B1C3D0500058C007D1A3E020042
:1002E00002E900ED273F040004A400890C4002014C
:1002F000012D0CE80B41000500000078DA9D586DD7
:100300006FE3B811FE2B3C038BF68A24B015CB7635
:100310005CEC87C4C915C16DB2B9F5A6DBA238087B
:100320008C44DB44F4761295C477C87FEF331C917C
:10033000921D670F6D80C022391C0EE7F519FE3142
:100340007868749A444FAAAA7591D783F9601DC73B
:1003500073F1D77F2C163F8AF0647C32140F3A6F0A
:100360008C4E6B9ABDBD1717EDF047119C0493930B
:1003700060389A0C474138381AC44596C93C0193F5
:100380003F06324D8B581A15153AA9455C34B9F918
:10039000F8211ECC47D3231C690CCE8A64FC28B0FC
:1003A0008CF91E417F3D49DC7A59D4F647E71F3F5F
:1003B00034A26CD2346A4A4B7F3AEC36FCD6A86A37
:1003C000EB59428047A2AE546D22A3E3C79A47A6D9
:1003D00092799D6913B94385CE71FF56BE19EE918E
:1003E0002A5945F5A63149F19C0FE663BA5ABED2A7
:1003F0006B48F4929E8E4377445DEA883F07F34949
:100400004794CBB458473AF7C25BA907F330F034AE
:10041000ADC48E828751A785534F99E8B536328D8A
:100420008AC6ECF2134F326D148D13B5924D6A22C9
:100430003F91C99728692A6960527B72D09DAC6050
:100440002053943BBCE29E46456D5459AAAA27CC42
:10045000E8CCEFDE24E3F1743674BBAB3A6A855125
:10046000EE2319FBAFD07F4DFCD7D47FA9546EBDCE
:100470005920E2CC1FA283D81D804FE88A0D076F58
:10048000A25F78052CCA9B269D9E725594FA45A5BD
:100490007B4A7A809D491D3DFBD70A533AEF9D1D4B
:1004A000869E4DF99C1D5075BC854F743C5A456F16
:1004B0009A7DD563E68DEE479D8C75B132EF9CF049
:1004C000BF1873D8312CF5BE938D7656BD17BF7506
:1004D00059E196A2AC5E7FFCF037846D30DAD9FB2F
:1004E000ACCD069246B1F35368AA8B85DA4CCF02A5
:1004F000EF09B1F7843A4E1FFDB74EFCE7368FA3E4
:100500005DA38B384BA27D3F380D7B27584FF4A25B
:100510006318B5FE9AE8CA7D9229C9A311704655A1
:10052000501B71E688B61CACDCE3EE6666A3AAAC91
:10053000807797A93AA095FE7264B6A5E27B7746CC
:100540003459DCC8CADBAF7A89DE642561FC24F942
:100550009FD19962778514897A68E0AD88C0441A82
:10056000C97A9F8CDD3C76AD7B0B23BF5029896413
:100570005825AA22FE140396E3F8CC113C57DAA8BA
:10058000371482F50142A85565AA5AAB3CDE5A7D64
:1005900041D5C8594807D1BAC26D41726A8756978A
:1005A0009B22536F12692DB3B21F06EDD8A7D1DD80
:1005B000448BAB7827C64D828EB94DD390411AE556
:1005C0001D6BD62D537CEE99BE4DFF2E35B94DA730
:1005D000D0E74A23DDEADF490C328F88AB98A3E4E9
:1005E00068B006232B3C28CFDAA125C25DC73C6E3C
:1005F0004A320EC403A736B7E17CE804AEE9B33350
:100600007DB33DC6933D32329523EBCC16E034CA20
:100610005C5991E8D536820F785E95B2B126DA1A28
:1006200003116895B785ED36B6F52E3DCD45A96A1F
:10063000633C64C2D6E6FBC79FC2903A51B9C1E1A0
:10064000A258AD708A8DB62EA11F0D5CBAB4D738F2
:10065000C0026598CDB457F20E57D5C1FCCCD3EF8C
:1006600057BFFFD37DB2CE7DDAACDA8D50C0D7D87C
:10067000B851F163AF4C05A193E15088BF03077AED
:10068000C7EC9C42556164F935CA7AA3AF48BD2CCA
:10069000D39EBDB14509BF1A4240F7B6C44087E3B7
:1006A000F6D3EE674FDC97061BE05235AE9234D09E
:1006B000C58162EFE5EE622998F6B6EC95937DF27E
:1006C0000DC57ED0A33F5483FCA6A2AB8AE438FDBF
:1006D000124967E22A7D09F74A17889826572FEDB5
:1006E0009D91A6BD6FE98A71D290899C087F526165
:1006F000C1943650253BE8A8E1C4AD1A020AFD8436
:10070000DEE20604A1EAE107D865D66D216D3CCB97
:100710004AF5F766BA2E5CFACE8A5A1F2A6C6F9891
:100720008EA7CCD482CB5597B97A214556B035F3F4
:100730007B19269CED52BD9360C644852AC4B9BB83
:10074000E74E63BB9FD3242538644E4DC8C127DADA
:100750001114D696B01D95DA5CE2530D174D68BEA4
:10076000291342F1071CB333FB247875D591A0FF00
:10077000F9E522BA39FF1741118A868BFB65747738
:100780007DBB244881F6E2EE6272747711E27F3A13
:10079000E82D9A67BBB8181EDD2D4658587CFABC68
:1007A000F839FAE9CBD52F24F2D0FE1D0D6E16F7DD
:1007B000A09226536B390A66E3129477DF6EF8B87D
:1007C0008060DC97ABC5D5F53FAFA26FD7B7979FD9
:1007D000BF11760D687279F505932C86AAB44CE9A1
:1007E000B04B1C76498761F5FAFC5374717E7F49E2
:1007F0006CF8ACE5D7F3AFCB68797FB3FC052BCBB6
:100800002B5A99D0F4D55D7479F5E9FCDF83F9F1C1
:10081000E895CA5683BA6AE199ED7C5AC84A9FF6B0
:100820005243D0C06B687C773E1CCCFF333C9AFDB2
:100830000AB12FE87BC6DF0BFA8665ECE09206B0C2
:10084000F0ECD757F6A9969BD51F71A3CAA96344AC
:100850005805B410E9A455BAB0C6597176E42C71A4
:100860009E9231B7C215C984E1E842E6222F8C6816
:100870006A25A8FE5523B12A2A014DFEDD8D754D4E
:10088000AB899DB75335FB38B6FEC50859D77A6D8D
:100890007D8A4B27CFDA6467A9C5F346E5AE5C0BCA
:1008A000191BFDA4B80B59708F284A59C110425525
:1008B0005551D9A6CF2D540A39B7361611FC2475D7
:1008C0000A194C21ACA7525F60BD9EB1CA750E17C4
:1008D000D48970BD54D7D97162E60CECA8DAE6D49D
:1008E00026A96E0E64248ACC14B23A676FB79815A5
:1008F0004FCA490320FBBB6238E696717741F090FE
:10090000A18D9B2540EE22813A9ADE3CE51B84AA0C
:100910003FADE6C4EC28766A56BCD165CB9D30CE9F
:100920008D7C21C3CEDC5519BADDA00B926B2580DE
:10093000E8908D9C2A6941D764BA36E513A2C46653
:100940004ACA423D29D20B35B9EF136D6405FB3C11
:10095000678E9AE0C4FBD4706D4748EDC377083BBF
:100960008ED4C1DC907A6D79152A2BCD9651CD6D40
:10097000C1C4E43A5CD16FE1A752B08EC8C96D28FA
:10098000119CEF2FC073DB85D9EE82CE4BAE310CBC
:1009900001ED524E81E2A729C9D176D9864A59156F
:1009A0006B5828C325A441D55A2199436858505102
:1009B000F81002FCA25C354D3836700CD90FB62504
:1009C000C7A5FAB24420B0B1EC24210B9D35999B08
:1009D00073FE1932A50B941D5237D9D2124E58BA54
:1009E00066CEA2479C6EC38C22B97BAC804B2DDBBC
:1009F0009DA628C44A5AE958322A1B5FFB7EF63668
:100A00006BD073CA0E096905BC6C53CAC8F6ABBD7E
:100A1000323147D9A9957DACB8CFEBA62C8BCA282B
:100A20000E539BB2A8E7F8264DBC498A352BEA073E
:100A3000EE58ECE310F05B933F8231C5383F0CF584
:100A4000E6EB6EA17B59E10453E4E956C8272CCBB1
:100A500087D4A51A7F7FC6D0F638DC8C91FE1E168F
:100A60009F8BCF492290B61FA84EAFA847AB7FE01F
:100A700002CDCE0750C0EEFA62A829C1AFAE0DF983
:100A80003226F939C4BE6A3997716F5D0977DF354F
:100A900021EF5CA5AD6FC458B69EE3EBAE2DE456D6
:100AA00081A9ACACD2A7C8EA6F1A4F4AEB286CA751
:100AB000A3591822F11FB9C1C402781E4C426B71B0
:100AC0000C269329BE4F5F5F2DE82C9125143FC45F
:100AD000317EDF01123565B53C6E9F303CAA9841EE
:100AE0004447DE4306F81CB91E9606811FA4BAF7D8
:100AF0008C06567DBE601774EC6CDAEE1A790C3AEF
:100B0000967618745DF20CFEE4BB889D36D1E686BD
:100B1000E810C49D4EBA57C09D1DB2D72208BBD263
:100B2000DE959E492C22EFB0D3D43F9DA0FCB5ADFD
:100B3000A24567B6A5B405A177599038AFE387CB36
:100B400051D7ABD70816DF7A4F7B7DF58E6C68B234
:100B5000E154EDE34DAF579E865D1F183963760D66
:100B6000218FF91AD3B3AED5EB91FA9E8F8D7B42CC
:100B7000A4B85C4F64B10F22588F13E8113CFA6F90
:100B80001053C2AD5DE271CDDCE1ED7B28F8CFA45E
:100B90009FB630163CB0396468E39F8B714A93B5B9
:100BA0003FF56FFC82D283B77BD0961F090091A6D8
:100BB000E3BD606AEDF13D1F6A38C1B1FA671D42BD
:100BC0007E2B3F6163EB402302C716EC6CF47A6323
:100BD0007B18EF4993338461FBA60EA4F9343C994A
:100BE0009D0C8F67A3E9F13A0C55305C05F171302B
:100BF0000C86C3B3601A8DC640B2E3E34AD6251211
:100C000052B52DF5F861F0FA5FA5D7E2C5120900DB
:100C100000040207040000040000020204040704A8
:100C20000000040407040002040404040107040093
:100C3000020400000000000000060002025440030D
:100C4000110C531203140C521805170C51400223B7
:100C50000C5040031C0C4F4002230C4E14041F0C7C
:100C60004D4002230C4C1003250C4B0C03280C4A5E
:100C70000D022B0C490B01320C4840012D0C471280
:100C8000042E0C460B01320C451002330C441503A4
:100C9000350C004002380C430E023A0C4209013C6C
:100CA0000C410600000020002300260029000B470D
:100CB000004400450080010C48004400450020012C
:100CC0001D88008000810080001C8A008000810057
:100CD00020001FB300B000B10080031EB400B000BC
:100CE000B10020030E98009000910080000F9A0040
:100CF0009000910020000001020304050607112462
:100D00001FBECFEFD0E4DEBFCDBF14BE0FB6F89448
:100D1000A8958091600088618093600010926000C7
:100D20000FBE11E0A0E0B1E0EEEEF9E500E00BBF90
:100D300002C007900D92A432B107D9F722E0A4E2D5
:100D4000B1E001C01D92A839B207E1F70E94E82A7C
:100D50000C94F52C0C940000CF93DF93CDB7DEB745
:100D600065970FB6F894DEBF0FBECDBF0E94D52A9F
:100D70006B017C0180917401882309F4AAC30E944D
:100D8000D52AC61AD70AE80AF90AF894809174019C
:100D9000882351F08FEF8093740178940000F894C9
:100DA000809174018111F9CF78940E94D52AA7010E
:100DB0009601260F371F481F591F288B398B4A8BE6
:100DC0005B8B81E08093740180916D01882319F120
:100DD00010926D018FEF89838E010F5F1F4F60E0CE
:100DE0007EE1C8010E9468170097A9F0DC015796C0
:100DF0002C9122FFF4CFAC01495E5F4FBC01685FCC
:100E00007F4F89810E94392960E07EE1C8010E94FC
:100E10006817009759F780916F01882311F110929C
:100E20006F018FEF89838E010F5F1F4F6EE278E2B3
:100E3000C8010E946817FC01892B99F0958D868D59
:100E40009813F4CFF894858D968D891709F494C37F
:100E500078946EE278E2C8010E946817FC01892B41
:100E600069F780913901882309F454C0109239013F
:100E70008FEF8B873FE0B32E62E07DE0CE010B96D3
:100E80000E9468171C01892B09F444C0D1015796B0
:100E90008C91579780FFF0CFF894F10144805580F2
:100EA0006680778087898E7F878B789456968C9121
:100EB000813009F4BAC208F492C2823009F44FC2F8
:100EC0008330D1F6AB8419861A869E01275F3F4F87
:100ED00042E061E0F101848995890E94EB118984E7
:100EE0009A84982489249824740100E010E0B101C8
:100EF000605F7F4FC12CA3019201C1010C960E943B
:100F00002B0D82FEB9CF809172018111B5CF8DE199
:100F10000E94091380913A01882301F110923A014D
:100F20008FEF89838E010F5F1F4F62E67EE0C8015D
:100F30000E946817009791F0DC0158962C912F3F82
:100F4000A1F7F894FC0126852111A3C2789462E6EA
:100F50007EE0C8010E946817009771F780915F01D9
:100F6000882309F43FC010925F018FEF89838E01BF
:100F70000F5F1F4F6DE77AE1C8010E946817009765
:100F800089F1DC011E962C911E9723FFF3CFF89474
:100F9000FC012685277F268778949C01265E3F4F9B
:100FA0003F932F9350968C918695869586951F92A8
:100FB0008F9389811F928F93ECE4FCE0FF93EF9372
:100FC0000E9410134DB75EB7485F5F4F0FB6F8949D
:100FD0005EBF0FBE4DBF6DE77AE1C8010E94681782
:100FE000009779F680916E01882309F469C0109208
:100FF0006E018FEF8D8312E0412E0DE2502E88E0BE
:10100000682E62E170E2CE0105960E9468178C019D
:10101000892B09F455C0D80152968C9182FFF1CFEB
:1010200080FF49C0BD80C8010E942D2BF801428A73
:1010300059826A820E94D52AA62E972E882E792E52
:101040009E012F5F3F4F42E060E0D8011C968D91DA
:101050009C911D970E94EB11F8940E94D52A6B0178
:101060007C01F80180859185A285B3858C0D9D1D3D
:10107000AE1DBF1D84839583A683B783C8010E94DC
:10108000632B7894FF92EF92DF92CF927F928F92B0
:101090009F92AF921F92BF9222E43CE03F932F9326
:1010A0000E9410138DB79EB70C960FB6F8949EBF92
:1010B0000FBE8DBFA6CF6D81C8010E945E21A1CF5A
:1010C000A89580917301882329F080E480936000C3
:1010D0001092730110913502112309F46DC0009133
:1010E000240100FD12C0153008F466C0D0907501CF
:1010F000FD2C8BEF8D0D8C3308F412C2EEE7FE163B
:1011000009F45CC2016000932401412F50E06EE7B6
:1011100070E085E791E00E94C62C009739F00E7FC1
:10112000009324018557914011E0180F01FD0CC078
:10113000902F92609093240186EF92E09F938F937B
:101140000E9410130F900F90D12ECC24CA9480E0EF
:101150000D2D10E018C090E04E2D50E0481B590BAB
:10116000B801680F791F6B587E4F8B589E4F0E94B5
:10117000DC2C109274018E2D9FB7F89420913502CB
:10118000F21661F09FBFF0903502EF2CED1819F7C1
:101190009FB7F89420913502F212F4CFE092350215
:1011A0009FBFF1E0CF1208C086EF92E09F938F932C
:1011B0000E9410130F900F900E94D52A6B017C01A2
:1011C000288939894A895B89621B730B840B950BCB
:1011D00080902D0190902E01A0902F01B0903001B1
:1011E0003FEF831A930AA30AB30A80922D019092CB
:1011F0002E01A0922F01B092300140902901509011
:101200002A0160902B0170902C01460E571E681E1B
:10121000791E4092290150922A0160922B0170920E
:101220002C016115710541E08407910508F056C154
:101230009B01AC010E944B2CDC01CB0181509F4FE4
:10124000AF4FBF4F892F9A2FAB2FBB27409125015E
:10125000509126016091270170912801840F951FFC
:10126000A61FB71F84179507A607B70718F48FEFB7
:101270009FEFDC018093250190932601A093270125
:10128000B093280140916701509168016091690114
:1012900070916A015C546B437B4F2F2DC416D506A9
:1012A000E606270B27FD66CDBF93AF939F938F93E1
:1012B0007F926F925F924F92BF92AF929F928F9266
:1012C0008DE89CE09F938F930E9410138DB79EB77B
:1012D0000E960FB6F8949EBF0FBE8DBF809167012A
:1012E00090916801A0916901B0916A01C816D90670
:1012F000EA06FB0698F48091630190916401A09145
:101300006501B09166010196A11DB11D8093630135
:1013100090936401A0936501B0936601C092670148
:10132000D0926801E0926901F0926A011092250161
:101330001092260110922701109228011092290183
:1013400010922A0110922B0110922C0110922D0163
:1013500010922E0110922F01109230010BCDAB8410
:1013600081E089831A821B821C829E012F5F3F4F7E
:1013700043E061E0848995890E94EB1169817A815B
:101380008B819C810E945B2C272F382F492F55275A
:101390002C873D874E875F8737E039831A829E010D
:1013A0002F5F3F4F42E061E0D10154968D919C91B7
:1013B00055970E94EB11EC84FD840E851F85002754
:1013C0001127B101605F7F4FCA80A3019201C10163
:1013D0000C960E942B0DBC85B0FF4ECD94CDAB84F6
:1013E0001D821E821F8218869E012B5F3F4F44E0A4
:1013F00061E0F101848995890E94EB116D817E8104
:101400008F8198850E945B2CD62EF72EB101605FEC
:101410007F4FC12CED2C8C01A3019201C1010C96D0
:101420000E942B0DD2FE28CD6ECDAB84FCE0F9835B
:101430001A821B821C829E012F5F3F4F44E061E0B5
:10144000D10154968D919C9155970E94EB11698121
:101450007A818B819C810E945B2C6B017C01B9821B
:101460001A829E012F5F3F4F42E061E0F1018489C3
:1014700095890E94EB11870176011127B101605F08
:101480007F4FCA80A3019201C1010C960E942B0DCF
:10149000F3CC318D308F7894AC01415F5F4F5F9317
:1014A0004F931F922F93FC0187891F928F938981FD
:1014B0001F928F9321E53CE03F932F930E941013DE
:1014C0008DB79EB70A960FB6F8949EBF0FBE8DBF1C
:1014D0002CCDC88AD98AEA8AFB8A73CC611571053A
:1014E00050E18507910508F0C2CE8B019C010150A7
:1014F0001F4F2F4F3F4F5527432F322F212F0E9431
:101500004B2CDC01CB0140912501509126016091CB
:10151000270170912801840F951FA61FB71FA2CE27
:10152000E09076018E2D807F803109F0E7CD1D158A
:1015300008F442CE8D2D90E0FC01EC58FE4F208146
:101540002E3709F0DBCDDC01AE58BE4F1D01FC018A
:10155000ED58FE4F90818C91292F30E05901B82A27
:101560006DEF6D0D85E791E00E94EB2AA816B90694
:1015700039F1F0907501C2CD54896589908921892E
:10158000328943898F5F858F78946F935F934F93F0
:101590003F932F939F9389811F928F93E5E6FCE001
:1015A000FF93EF930E9410134DB75EB7465F5F4FF6
:1015B0000FB6F8945EBF0FBE4DBF38CC11E0C4CD5E
:1015C000802F8D7F8093240180910901E812FEC055
:1015D00081E08E0D8F70806180930901B7E72B1633
:1015E000B1E03B0609F008F4BAC0E7E7F1E0ADB6B8
:1015F000BEB68F010F5F1F4F2081222309F4E3C085
:10160000E5EFF2E08491281708F0DDC030E0220F0A
:10161000331F220F331F220F331FF901E251FF4FF7
:10162000E4914DB75EB784E0E89F40195109112459
:101630000FB6F8945EBF0FBE4DBF8DB79EB7019633
:10164000F901E051FF4F4491F901EF50FF4F6591CF
:101650007491FB01640F711DAC01BD86AC869D8B3E
:101660008C8B6E177F0709F47FC02016310638F186
:10167000A491A53038F1A73011F52801BFEF4B1A1E
:101680005B0AD8016C908201060D111D20163106EF
:10169000B0F0862C912CA12CB12CDA018D929D9268
:1016A000AD92BC921397612C712C14964D925D9261
:1016B0006D927C921797485F5F4F3196D2CF87E04B
:1016C0000E9409137A0194E0E90EF11C5801AFEF72
:1016D000AA1ABA0AD8011C91912F9F77492E512C32
:1016E000612C712C012F0076003691F117FF3AC062
:1016F00085010F5F1F4FD80111978C91440C551C29
:10170000661C771C440C551C661C771C440C551C2D
:10171000661C771C440C551C661C771C440C551C1D
:10172000661C771C440C551C661C771C440C551C0D
:10173000661C771C982F9F77492A87FDDACFDA013C
:101740004D925D926D927C921397A701319689CF4D
:10175000B0EE4B2A55245A94652C762CC7CFCC2456
:10176000C394F5CC8501EBCFAC84BD848C899D8975
:1017700040917201442331F0F901E151FF4FE491AE
:10178000E0FF11C02D503F4FF90125913491F9012F
:1017900009950FB6F894BEBE0FBEADBE0215130577
:1017A000F0F6F80124CF80913B011F928F93ECE972
:1017B000FCE0FF93EF930E9410130FB6F894BEBEA7
:1017C0000FBEADBEEBCF85E00E9409131D2DB4CC3A
:1017D0000895FC018081A481B58140855185628591
:1017E00073859FB7F894813061F0823019F04C9383
:1017F0009FBF08954D935D936D937C9313979FBF07
:10180000089511965C934E939FBF089585E10E94C1
:10181000091382E10E940913FC0185818F93848161
:101820008F9380811F928F9389E79CE09F938F9382
:101830000E9410130F900F900F900F900F900F9029
:101840000895DC012C911496ED91FC9115973FB70A
:10185000F8942130E9F02230B1F0808190E0A0E0EE
:10186000B0E03FBFBF93AF939F938F9384E79CE01B
:101870009F938F930E9410130F900F900F900F90D3
:101880000F900F90089580819181A281B381E9CF5B
:1018900080819181A0E0B0E0E4CF81E391E00C94FD
:1018A0002D2BCF93DF93EC0181E391E00E942D2B50
:1018B000E1E3F1E089E09CE0938382838881998170
:1018C000AA81BB8184839583A683B783CF01DF91EF
:1018D000CF910C94632B8EE00E940913FC011092AF
:1018E000740181E08093390187898160878B44810D
:1018F00055816681778180859185A285B385840F26
:10190000951FA61FB71F84839583A683B78381E0A5
:101910000895EF92FF921F93CF93DF93EC018C8594
:10192000182F1F7741E050E069E87CE088810E9431
:1019300020237C018C819D81AE81BF81892B8A2BE4
:101940008B2BF1F48091BC0082FD10C061E081E13D
:101950000E949C2961E080E10E949C291092B900BC
:1019600088E48093B80084E08093BC00812F880FC6
:10197000F7018083DF91CF911F91FF90EF90089541
:101980008DE20E9409130F931F93CF93DF938C0175
:1019900062E07DE0FC0180810E949B22EC010E94BC
:1019A0002D2BF80184819581A681B7818C839D833D
:1019B000AE83BF8380859185A285B385888799870B
:1019C000AA87BB87892B8A2B8B2B29F4DF91CF9198
:1019D0001F910F91089584859585A685B7858C877D
:1019E0009D87AE87BF8780899189A289B389888BBB
:1019F000998BAA8BBB8BCE01DF91CF911F910F9159
:101A00000C94632BFF920F931F93CF93DF93EC0102
:101A1000F88483E08F15E0F048E150E062E07DE07B
:101A200088810E9420238C018EE69CE0F80193833C
:101A300082836CED70E18C810E949B22F801958B72
:101A4000848BF68ADF91CF911F910F91FF900895BB
:101A50008FE10E9409134F925F926F927F928F9253
:101A60009F92AF92CF92EF92FF920F931F93CF93DB
:101A7000DF93EC014B01270138011F92CF927F9237
:101A80006F925F92EF925F934F933F932F931F92CA
:101A9000AF928BE59CE09F938F930E9410138DB7BC
:101AA0009EB70E960FB6F8949EBF0FBE8DBF88816D
:101AB0009981AA81BB81E816F9060A071B0750F035
:101AC000F40180819181A281B3818E159F05A007C9
:101AD000B10720F480917201882379F0DF91CF91D2
:101AE0001F910F91FF90EF90CF90AF909F908F90AC
:101AF0007F906F905F904F9008958EE10E94091340
:101B0000CF93DF93EC016A8D662309F453C0FC0187
:101B100050E031E020E0A38DB48D4C91958D94235D
:101B200009F0532B2F5F330F33962613F4CF2C85F8
:101B3000922F952729F08D85852780959823D9F4B4
:101B4000888D5D8787FD03C0815070F1888F4C813F
:101B50005D816E817F8188859985AA85BB85840F8B
:101B6000951FA61FB71F8C839D83AE83BF8381E023
:101B7000DF91CF910895982F909529238523822B6B
:101B80008C879E859830E0F621E0290F2E87FE0194
:101B9000E90FF11D87871092740181E080933A016B
:101BA0008FEF888F5D87D3CF1092740191E090936F
:101BB0003A01CCCF50E0BBCFAF92BF92DF92EF9211
:101BC000FF920F931F93CF93DF93FC01A485B585FC
:101BD000968547855089E18822893389F488A588CC
:101BE000B6887789008D118DD28C808586279C934D
:101BF00084FD20C085FD22C086FD24C087FD26C04F
:101C00009C93862F8295807F808768279C9364FDB4
:101C10002AC065FD25C066FD1CC067FD1EC09C93E3
:101C2000DF91CF911F910F91FF90EF90DF90BF90C8
:101C3000AF900895EA01E88285FFDECFE901F882DE
:101C400086FFDCCFE501788387FFDACFE801D88211
:101C5000D7CFF501708367FFE2CFE801D882DFCFED
:101C6000E901F882D8CFFA01E082D3CF0F931F9316
:101C7000CF93DF938C0162E67EE0DC018C910E94C1
:101C80009B22FC01D80114969C91828D9817B8F480
:101C9000292F30E0E901CC0FDD1F2C0F3D1FEF0194
:101CA000C20FD31FF801648580850E9494186B8F42
:101CB0007C8F8D8FDF91CF911F910F91089583E2DB
:101CC0000E940913CF93FC01C481C930B8F44C2F92
:101CD00050E09A01220F331F420F531F455E5F4FA2
:101CE00062E67EE0FC0180810E942023FC01C28F1D
:101CF00020E83DE033832283CF91089584E20E945F
:101D000009135F926F927F928F929F92AF92BF92D0
:101D1000CF92DF92EF92FF920F931F93CF93DF93B7
:101D20008C01FC01C080D180E280F38084809580AA
:101D3000A680B78066246A94660E662301F1EA01E4
:101D4000712CFFEF6F1A7F0A640E751E59900E9466
:101D5000D52ADC01CB018C199D09AE09BF09881574
:101D60009905AA05BB0598F3652DC8010E94DC0DF5
:101D70000E94D52A6B017C01C615D70539F7F801F9
:101D8000C082D182E282F382DF91CF911F910F91C5
:101D9000FF90EF90DF90CF90BF90AF909F908F908B
:101DA0007F906F905F9008950F931F93CF93DF9371
:101DB000EC016CE07FE088810E949B228C01FC0199
:101DC00061857285838541E00E94CD1848855985DB
:101DD0006C81C801DF91CF911F910F910C94810EFE
:101DE0000F931F93CF93DF93EC016CE07FE088812A
:101DF0000E949B228C01FC0161857285838540E0F5
:101E00000E94CD18488559856C81C801DF91CF911A
:101E10001F910F910C94810ECF92DF92EF92FF925F
:101E20000F931F93CF93DF93EC014BE150E06CE0F5
:101E30007FE088810E9420238C0160E08C810E94D9
:101E40009C29F80161877287838760E088850E94FA
:101E50009C29F80164877587868760E08C850E94DD
:101E60009C29F8016787708B818B60E088890E94CC
:101E70009C29F801628B738B848B60E08C890E94B3
:101E80009C29F801658B768B878B60E0888D0E949A
:101E90009C29F801608F718F828FF8940E94D52A57
:101EA0006B017C0160E0C8010E94DC0D0E94D52A14
:101EB0007894DC01CB018C199D09AE09BF09CC8C4B
:101EC000DD8CEE8CFF8C8C159D05AE05BF0548F4AE
:101ED000C81AD90AEA0AFB0AF801C482D582E68246
:101EE000F782DF91CF911F910F91FF90EF90DF90DC
:101EF000CF9008954F925F926F927F928F929F92B0
:101F0000AF92BF92CF92DF92EF92FF920F931F9307
:101F1000CF93DF938C01562E3A01FC018080918093
:101F2000A280B380C480D580E680F780EA01219644
:101F3000FA014080642D607F0E94E7240E94D52A28
:101F4000DC01CB0188199909AA09BB098C159D05EB
:101F5000AE05BF0598F3642D6295607FC8010E94AD
:101F6000E7240E94D52A6B017C01F80180849184CA
:101F7000A284B384F1E05F1639F15A945A94852D06
:101F800090E00296680E791E5990652D607FC80119
:101F90000E94E7240E94D52ADC01CB018C199D09FF
:101FA000AE09BF0988159905AA05BB0598F3652DEB
:101FB0006295607FC8010E94E7240E94D52A6B01C8
:101FC0007C01C615D70501F7F801C082D182E282F3
:101FD000F382DF91CF911F910F91FF90EF90DF90EF
:101FE000CF90BF90AF909F908F907F906F905F90B9
:101FF0004F9008950F931F93CF93DF93EC0169E106
:1020000070E188810E949B228C016AEF0E94E72484
:102010006C81611105C0DF91CF911F910F910895DF
:1020200048855985C801DF91CF911F910F910C947C
:102030007A0FCF92DF92EF92FF920F931F93CF937D
:10204000DF938C0142E150E069E170E1FC018081A5
:102050000E942023EC0160E0F80180850E949C2909
:102060006C877D878E8760E0F80184850E949C29BB
:102070006F87788B898B61E0F80184810E949C29AD
:1020800068EFCE010E94E72460E2CE010E94E724BF
:10209000F8940E94D52A6B017C0160E0CE010E9479
:1020A000E7240E94D52A7894688379838A839B8366
:1020B000DC01CB018C199D09AE09BF09F801C0886C
:1020C000D188E288F3888C159D05AE05BF0540F4E4
:1020D000C81AD90AEA0AFB0ACC82DD82EE82FF82A4
:1020E000F801048915892689378980179107A20785
:1020F000B30740F4081B190B2A0B3B0B0887198701
:102100002A873B87DF91CF911F910F91FF90EF902E
:10211000DF90CF9008950F931F93CF93DF93EC013F
:1021200069E170E188810E949B228C0168EF0E9426
:10213000E7246C81611105C0DF91CF911F910F9150
:10214000089548855985C801DF91CF911F910F915E
:102150000C947A0F46E050E06CED70E1FC01808158
:102160000C942023CF92DF92FF920F931F93CF9373
:10217000DF93EC016CED70E18C810E949B226C017D
:10218000F8840F2D10E0A8014D5F5F4F62EB70E106
:1021900088810E942023FC01D182C082F2826C855A
:1021A0007D85A8010396DF91CF911F910F91FF903C
:1021B000DF90CF900C94D32C0F931F93CF93DF938A
:1021C0008C0146E050E06CED70E1FC0180810E94E2
:1021D0002023EC0161E0F80184810E949C296A833C
:1021E0007B838C838D8181608D83DF91CF911F9163
:1021F0000F9108950F931F93CF93DF938C016EE29D
:1022000078E2FC0180810E949B22EC010E942D2B30
:10221000909100018A8D981303C08FEF8093000185
:10222000F80184819581A681B781888B998BAA8BCF
:10223000BB8B8C839D83AE83BF8380859185A28574
:10224000B3858C879D87AE87BF8784858E8F91E00D
:10225000980F9D8F40895189628973894887598772
:102260006A877B87248935893F8B2E8B208D318D22
:10227000398F288F948D9C8F811105C0DF91CF916C
:102280001F910F910895CE01DF91CF911F910F9172
:102290000C94632B8CE10E9409138F929F92AF9252
:1022A000BF92FF920F931F93CF93DF93EC016CEDDE
:1022B00070E188810E949B228C01F88483E08F1555
:1022C00008F484C0F8018581867009F07FC08C8491
:1022D0009D84AE84BF848C819D81AE81BF81892B1A
:1022E0008A2B8B2B09F074C0E8EAFCE0A591B4912D
:1022F00011968C9184FD04C060E08CE00E949C29C2
:1023000060E08FE00E949C2960E08DE00E949C29A3
:1023100060E08EE00E94941880E58CBD1DBC8114A5
:10232000F2E19F06FAE7AF06B10408F041C081145C
:1023300089E098068DE3A806B10418F5E0E88E164A
:10234000E4E89E06EEE1AE06B104C0F5F0E48F16B7
:10235000F2E49F06FFE0AF06B10468F580E288165C
:1023600081EA980687E0A806B10458F590E0E0E914
:102370008E16E0ED9E06E3E0AE06B10428F583E09C
:1023800002C090E080E0CF2DCC0FCC0FC065C82BF1
:10239000F801C0839183858184608583DF91CF912B
:1023A0001F910F91FF90BF90AF909F908F900895D5
:1023B00091E080E0E8CF90E081E0E5CF91E081E03E
:1023C000E2CF91E082E0DFCF82E0DDCF0E944A11D0
:1023D0008AE20E9409138F929F92AF92BF92CF928E
:1023E000DF92EF92FF920F931F93CF93DF934C01F5
:1023F000E62E142F6901DC0115968C911597982F04
:10240000967009F462C081FD6DC0F40190818181F4
:102410009CBD8DBDD40115969C91159790FD71C002
:1024200091FF7AC0D401CD91DC91AA24AA94A10E87
:102430001123A9F1B12CBFEFAB1ABB0AAC0CBD1C28
:10244000F601F08008E010E0898580FF7AC0EE8117
:10245000FF81888580834F2D40786B817C818D81C1
:102460000E94CD18FF0CEE81FF8188858083110FBB
:10247000E881F98190818A81892391E009F490E0D3
:10248000192B015009F7EE2011F0D6011C93BFEF74
:10249000CB1ADB0ACA14DB0499F6F401958190FF8C
:1024A00014C0D40112966D917D918C9141E0DF9121
:1024B000CF911F910F91FF90EF90DF90CF90BF9041
:1024C000AF909F908F900C94CD18DF91CF911F917A
:1024D0000F91FF90EF90DF90CF90BF90AF909F90C3
:1024E0008F900895ED91FC914185427066817781CE
:1024F00080850E94CD18D40115969C91159790FF68
:102500008FCF12966D917D918C9140E00E94CD18F5
:10251000F401958191FD86CFEE2071F18FEF810F4F
:10252000112309F4BCCFF60190819EBD0DB407FEC6
:10253000FDCF9EB591938150B8F7D40115969C912B
:10254000AECF4F2D40786B817C818D810E94CD185C
:10255000FF0CEE81FF8188858083110FE881F9816E
:1025600090818A81892391E009F490E0192BEE8112
:10257000FF818885808385CFF6019601210F311D6B
:102580002E173F0709F489CF81918EBD0DB407FE48
:10259000FDCFF6CFCF93DF93EC016CED70E1888136
:1025A0000E949B22288539854C8160E0DF91CF9184
:1025B0000C94EB11FF920F931F93CF93DF93EC01D9
:1025C00018816CED70E1812F0E949B220C81F884B0
:1025D000C9852F2D3C2F402F61E00E94EB11CF9336
:1025E000FF921F920F931F921F9380E69CE09F9390
:1025F0008F930E9410138DB79EB708960FB6F8946C
:102600009EBF0FBE8DBFDF91CF911F910F91FF90A5
:102610000895F894682F70E08CE391E00E949C2C60
:102620002F923F925F926F927F928F929F92AF9282
:10263000BF92CF92DF92EF92FF920F931F93CF93AF
:10264000DF93CDB7DEB728970FB6F894DEBF0FBE85
:10265000CDBF809153018823C1F028960FB6F8941E
:10266000DEBF0FBECDBFDF91CF911F910F91FF90C5
:10267000EF90DF90CF90BF90AF909F908F907F9022
:102680006F905F903F902F90089581E08093530169
:102690008E01025E1F4F20919702509096022515E1
:1026A000C0F4452D50E0CC8CDD8C3FEFC31AD30A2B
:1026B000F60184913A01680E711CC30181369105BF
:1026C00054F1821B91098136910560F010925301FB
:1026D000C4CF109296021092970240E050E0512C25
:1026E00020E0E1CF1092960260919702561AE52CF5
:1026F000F12C70E06A5C7D4FA70186E392E00E94B6
:10270000DC2C10929702509296028091C100806258
:102710008093C100A7019A012A5C3D4F7901F6011F
:10272000A491A63008F42BC1AA2EB12CF3E0AF1A65
:10273000B108A20EB31EEC8DFD8D32969491EC8DF6
:10274000FD8D3396C590D4902D5F3F4F3E832D83F2
:10275000EC8DFD8D8491D70112968C933601690E14
:10276000711C78866F826F807884C614D70409F450
:1027700035C18D809E80A814B90448F0F60184917B
:10278000853009F4BFC008F441C0883018F086E0F5
:102790000E940913F80120813181F5016D807E804E
:1027A000E619F709AF01FF0F660B770B49835A83D0
:1027B0006B837C83A901330F660B770B69807A806A
:1027C0008B809C80641675068606970608F4C8C040
:1027D0006D807E802FEF621A720AAD81BE814C93AC
:1027E0001801B4E02B0E311CF801228133818A01DB
:1027F000B901863009F4B7C0C3010E94D32C43014C
:10280000800E911E9E828D828101A6C0823008F4C6
:10281000AEC0833009F4D8C0F801408151813A013B
:10282000812C912C0E5F1F4FD401C3018096A11DF6
:10283000B11D80389105A105B10508F4C2C0A401FD
:102840009301305F4F4F5F4F2115304441055105D3
:1028500008F43FC0D401C30118960097A042B10507
:1028600040F1A40193015C5F211531054105504100
:1028700080F0D401C3015CE1B695A7959795879543
:102880005A95D1F78068AD81BE818C931196BE8335
:10289000AD83D401C30145E1B695A795979587957A
:1028A0004A95D1F78068AD81BE818C931196BE8325
:1028B000AD83D401C3013EE0B695A7959795879562
:1028C0003A95D1F78068AD81BE818C931196BE8315
:1028D000AD83ED81FE813196D401C30127E0B69529
:1028E000A795979587952A95D1F78068AD81BE8188
:1028F0008C939F012F5F3F4F3E832D83462D4F7753
:1029000040832AC098012E5F3F4FF801A081B1811A
:102910008D819E8101966C91662399F08A159B05A5
:1029200080F4FD01319604C0A816B90609F447C029
:102930000196AC0141505109DA016C93619161112A
:10294000F3CFAC016D807E80461957094150D30109
:102950004C939E838D8389012FEFC21AD20A03CF35
:10296000B401A30135CFC3010E94BD2C48CFD801CB
:102970006D907D908D909C900C5F1F4F55CF1A2FBE
:10298000D7011C938091090111968C936DEF610F13
:10299000C7010E94EB2AE10EF11CF70133979083E7
:1029A0003196808331968EE78083A52DA10FA09369
:1029B00096028091C10080628093C10087CEC501DC
:1029C000C0CFED81FE8195CFD8014D915C913A0148
:1029D000550F880899080E5F1F4F26CF0D811E8165
:1029E0000E191F0913E0100FCBCFCF93DF93CDB794
:1029F000DEB729970FB6F894DEBF0FBECDBF88E9CA
:102A000092E09093580180935701FFB6F89410928A
:102A1000800001E000938100E4E8F0E01182108280
:102A200080819181C296909389008093880012E002
:102A300016BB80819181C29690938B0080938A000F
:102A400084E086BB8AE191E00E94632B06BB109371
:102A50006F00FFBE9DE088E10FB6F894A8958093C3
:102A600060000FBE9093600080E48093600010933C
:102A7000C00087E090E09093C5008093C40086E09A
:102A80008093C20088EB8093C10081EA9CE09F9311
:102A90008F930E9410130F900F90F8948CE391E0A5
:102AA0000E947C2C8C01892B19F478940E94AC062E
:102AB000F8940E94D52AF62EE72ED82EC92E8091A2
:102AC0007201811102C000933B0122E02093720148
:102AD000A1E0B1E0B0932301A0932201E2E1F1E093
:102AE000448155816681778114964D935D936D93F2
:102AF0007C931797ED93FC938AE091E09183808318
:102B00008091840090918500C29690938900809373
:102B1000880026BB109253010E94B3228FEF898751
:102B200088248394712C0FC0F80160A171A182A147
:102B300043A10E94CD18882DF80193A1911101C0E5
:102B4000872DF80184A366EF76E2CE0109960E94F4
:102B500068178C01892B41F78FEF888709C0FC012A
:102B60006084718482844089882DB3010E94CD18CD
:102B700065E377E2CE0108960E946817009779F71F
:102B80008FEF8F8305C0FC01138E128E0E94251FCC
:102B900063E07DE1CE0107960E946817009799F7E0
:102BA0008FEF8E831FEF0AC090910001828D9813E2
:102BB00002C010930001868D8111C4C06EE278E2DC
:102BC000CE0106960E946817FC01892B69F78FEFEA
:102BD0008D8304C0FC01258120FDCEC06CED70E129
:102BE000CE0105960E9468170097A1F78FEF8D839D
:102BF0000AC09C012D5F3F4FFC01428160E0808153
:102C000091810E94EB1162EB70E1CE0105960E946A
:102C10006817009771F78FEF8C8362EB73E2CE0138
:102C200004960E946817FC01892B89F0818992899A
:102C3000A085B1852285211108C02FB7F894992766
:102C400011969C938E932FBFE8CF8C93E6CF8FEF96
:102C50008B830EC0F80164857585868540E00E94EF
:102C6000CD18F80167857089818940E00E94CD18F0
:102C700069E170E1CE0103960E9468178C01892BEF
:102C800049F78FEF8A832CC0F801618572858385AF
:102C900040E00E94CD18F80164857585868540E086
:102CA0000E94CD18F80167857089818940E00E94F3
:102CB000CD18F80162897389848940E00E94CD189B
:102CC000F80165897689878940E00E94CD18F8016E
:102CD000608D718D828D40E00E94CD18F8011086C4
:102CE0006CE07FE0CE0102960E9468178C01892B70
:102CF00059F68FEF898302C00E94161B6DE77AE1B7
:102D0000CE0101960E9468170097B1F78AE191E021
:102D10000E94632B81E080937201789480913B0143
:102D20001F928F93CF92DF92EF92FF9287E99CE000
:102D30009F938F930E9410130FB6F894DEBF0FBEBF
:102D4000CDBFB3CE8F5F858F4089518962897389EA
:102D500080859185A285B385840F951FA61FB71F17
:102D6000808B918BA28BB38B84839583A683B7834F
:102D7000CF010E94632B22CF62817381848141E065
:102D80000E94CD182BCF0F931F93CF93DF938C010D
:102D90008091610190916201892B09F04BC0609193
:102DA000600170E0623071052CF482E08093600174
:102DB00062E070E0E0915701F09158014DB75EB7C5
:102DC00041505F4F44275A959F01C0E0D0E0C901B0
:102DD000860F971F4817590730F121969C01C1159E
:102DE000A4E0DA07A1F78E1B9F0B0E94FD22D0936F
:102DF0006201C093610190935A01809359010E942E
:102E0000B322F80180819181A281B38180935B011B
:102E100090935C01A0935D01B0935E01DF91CF912F
:102E20001F910F910895209711F0C901DCCF80E127
:102E30000E9409138DE00E940913CF932091550140
:102E400030915601232B91F4FC01C0818C2F90E02E
:102E5000880F991F880F991F0E94FD229093560199
:102E600080935501C0935401CF9108958AE00E9448
:102E70000913809161019091620121E0309172010A
:102E8000311101C020E01F922F939F938F932091C7
:102E90005E012F9320915D012F9320915C012F9370
:102EA00020915B012F9321E0892B09F420E01F92F0
:102EB0002F938EE79CE09F938F930E9410138DB702
:102EC0009EB70C960FB6F8949EBF0FBE8DBF0895A7
:102ED000CF93DF93EC01988140915401A09155016B
:102EE000B09156010BC0FD0184E0989FE00DF11DEB
:102EF0001124208131812617370741F09F5F9417F5
:102F000090F380E090E0DF91CF91089598838281E3
:102F10009381DF91CF910895CF92DF92EF92FF924C
:102F20006B017C0109C00E94D52A292F6C157D05F3
:102F30008E052F0927FF09C08091BC0087FFF3CFC2
:102F4000FF90EF90DF90CF9008958CE20E940913DC
:102F500024EA2093BC000E948C178091B90090E075
:102F6000A0E0B0E080319105A105B10521F00897FE
:102F7000A105B10509F408958BE20E9409137F921F
:102F80008F929F92AF92BF92CF92DF92EF92FF9279
:102F90000F931F93CF93DF93782EC62F942EB52EC9
:102FA000822E0E94D52A6B017C0120E8C20E28E304
:102FB000D21E21E0E21EF11CC701B6010E94A81733
:102FC0007092BB0084E88093BC00C701B6010E94E8
:102FD0008C17AA24AA94AC0ECC23B1F0C92DDB2DFA
:102FE000B12C8FEFA81AB80AAC0EBD1E94E8992E2A
:102FF00089918093BB009092BC00C701B6010E94EA
:103000008C17AC16BD06A1F7C701B6010E94A81720
:10301000872D81608093BB0084E88093BC00C7014A
:10302000B6010E948C17DFEFD80D882009F15801F6
:10303000CD2F84EC982ECC2369F09092BC00C70170
:10304000B6010E948C178091BB00F50181935F014E
:10305000C15099F7F801ED0FF11DEF0184E880935D
:10306000BC00C701B6010E948C178091BB00888309
:1030700084E98093BC00DF91CF911F910F91FF9065
:10308000EF90DF90CF90BF90AF909F908F907F9008
:103090000895BF92CF92DF92EF92FF920F931F930A
:1030A000CF93DF93D82FC62FB42E152F0E94D52A89
:1030B0006B017C0120E8C20E28E3D21E21E0E21E53
:1030C000F11CC701B6010E94A817D093BB0084E889
:1030D0008093BC00C701B6010E948C170FEF0C0F44
:1030E000CC23A9F0CB2DD12F10E00F5F1F4F0C0F79
:1030F0001D1F84E8B82E89918093BB00B092BC005C
:10310000C701B6010E948C17C017D107A1F784E947
:103110008093BC00DF91CF911F910F91FF90EF90B2
:10312000DF90CF90BF9008958032A0F567FD32C048
:10313000E82FE695E695E695F0E0EE0FFF1FEA55DD
:10314000F34FA591B491109729F1877021E030E0F9
:10315000A90102C0440F551F8A95E2F7CA014FB773
:10316000F89412963C911297662381F0382B282F01
:10317000209512963C93129711963C911197232318
:1031800011962C9311974FBFBD010895282F2095BC
:103190003223EFCF87E20E940913FB012FB7F89487
:1031A0009281411105C08095892382832FBF0895A4
:1031B000892B82832FBF0895CF92DF92EF92FF92E7
:1031C000CF93DF93FC01A085B18582858C93968592
:1031D00081E089278687C82FC170C688D788E08C90
:1031E000F18C97859F5FD1899D1708F05FC0892F6B
:1031F000869586958695DF01A80FB11D5A962C916C
:1032000030E0892F877002C0359527958A95E2F7BF
:103210002170B701A601C217A9F033C0892F869586
:1032200086958695DF01A80FB11D5A962C9130E046
:10323000892F877002C0359527958A95E2F721700E
:10324000C2131FC04C0D5D1D6E1D7F1D9F5F9D171E
:1032500028F380ED9BE19383828384819581A6810D
:10326000B781480F591F6A1F7B1F448355836683AC
:10327000778381E0DF91CF91FF90EF90DF90CF9047
:103280000895978784819581A681B781480F591F3A
:103290006A1F7B1F448355836683778381E0DF91B8
:1032A000CF91FF90EF90DF90CF900895B701A601E6
:1032B000D0CFCF92DF92EF92FF920F931F93CF93D5
:1032C000DF93EC01E885F9858A8580830E94D52A01
:1032D0003E8521E023272E872F852F5F2F872130E2
:1032E00009F45CC02530E0F40C811D812E813F8102
:1032F0004A895B896C897D89DB01CA01800F911F36
:10330000A21FB31F8C839D83AE83BF8381E0DF91B7
:10331000CF911F910F91FF90EF90DF90CF90089584
:10332000CC80DD80EE80FF80AB01BC014C195D09D3
:103330006E097F098E899F89A88DB98D481B590B0D
:103340006A0B7B0BDB01CA010296A11DB11DB7FD03
:1033500034C0B595A79597958795B595A7959795F9
:1033600087950A891B892C893D89800F911FA21F8F
:10337000B31F8E8B9F8BA88FB98F2CED38E13B83C9
:103380002A834C0D5D1D6E1D7F1D840F951FA61F8A
:10339000B71F8C839D83AE83BF83B8CF0C811D8103
:1033A0002E813F81AB01BC01401B510B620B730BA3
:1033B0004E8B5F8B688F798F9BCFDB01CA0105969F
:1033C000A11DB11DC6CFEF92FF920F931F93CF9314
:1033D000DF937C016DE77AE1FC0180810E949B22F2
:1033E000EC011E8511FD3DC0F701048160857185EA
:1033F000F4840B3008F045C0FAE0FF1508F441C032
:10340000402F50E04A960E94D32C1F861173126001
:103410001E87802F880F880F880F898BFF0CFF0C69
:10342000FF0CF88A011124C08A899B89AC89BD8967
:103430008E8B9F8BA88FB98F8CED98E19B838A83AD
:10344000F8940E94D52ADC01CB018058934FAF4FEE
:10345000BF4F8C839D83AE83BF83CE010E94632BBD
:103460007894DF91CF911F910F91FF90EF90089585
:103470008A8D8F738A32C1F689E599E19B838A83AD
:10348000DFCF85E20E9409130F931F93CF93DF9341
:103490008C0162E67EE0DC018C910E949B22EC01B3
:1034A000D8011496EC918F898E0F8F8BF8948E85AE
:1034B000E817D0F48E1BF0E03F96EC0FFD1FDE0105
:1034C0001F962FEF280F30E0205F3F4F2C0F3D1F3E
:1034D00091919D93A217B307D9F78E877894DF91C6
:1034E000CF911F910F9108951E868EEF888F78944B
:1034F000DF91CF911F910F9108957F928F929F92AC
:10350000AF92BF92CF92DF92EF92FF920F931F93F1
:10351000CF93DF93EC0144E250E06DE77AE18881DC
:103520000E9420238C0178848C809D80AE80BF8097
:10353000CC84DD84EE84FF8461E0711001C060E022
:10354000882D0E949418F80163877487858761E04D
:103550008C2D0E949C29F801608771878287888959
:103560009989AA89BB89828B938BA48BB58B7110A7
:1035700018C091E08C149D04AE04BF04C1F080E03B
:10358000892BF8018687DF91CF911F910F91FF90D2
:10359000EF90DF90CF90BF90AF909F908F907F90F3
:1035A000089591E18C149D04AE04BF0441F780E2BC
:1035B000E7CF0F931F93CF93DF938C0162E67EE0FA
:1035C000FC0180810E949B22EC010E942D2BF801BE
:1035D00084819581A681B7818C839D83AE83BF83CF
:1035E0004085518562857385488759876A877B87BF
:1035F00080898D878C871E861F8A8EEF888F8485B1
:10360000898F87FD10C0452B462B472B29F4DF916E
:10361000CF911F910F910895CE01DF91CF911F910E
:103620000F910C94632B82E20E940913CF93DF93D6
:10363000EC018E8585FD0DC0688579858A8541E020
:103640000E94CD188E85807381608E87DF91CF9127
:103650000895E885F9858A852FB7F8949281982B8B
:1036600092839181892B81832FBF8E8580738160A6
:103670008E87DF91CF910895CF93DF93FC01A385CF
:10368000B4855C918785982F977021E030E001C068
:10369000220F9A95EAF7982F969596959695DF01C1
:1036A000A90FB11D5A969C915A9745854523E1F083
:1036B000292B5A962C938F5F90898917E8F4878776
:1036C000448155816681778186899789A08DB18DE6
:1036D000840F951FA61FB71F84839583A683B78386
:1036E00081E0DF91CF910895209529235A962C935C
:1036F0008F5F9089891718F3EF01CF010E94161B85
:103700008E8588608E871092740181E080935F01BE
:1037100080E0DF91CF910895CF93DF93FC01A385E3
:10372000B4859C9185858923E9F0868584608687A8
:10373000878591E0980F9787803408F544815581FB
:103740006681778186899789A08DB18D840F951FB9
:10375000A61FB71F84839583A683B78381E0DF917B
:10376000CF910895868582FFE3CF17868CE39BE196
:1037700093838283CF01DF91CF910C943C1BEF01A7
:10378000108ACF010E94161B8E8588608E8710924A
:10379000740181E080935F0180E0DF91CF91089513
:1037A0000F931F93CF93FC01C089CC23E9F1868549
:1037B00085FD23C017868CE89BE1938382838689ED
:1037C0009789A08DB18D880F991FAA1FBB1F880FE5
:1037D000991FAA1FBB1F4481558166817781840F81
:1037E000951FA61FB71F84839583A683B783C1E067
:1037F0008C2FCF911F910F910895A385B485958546
:103800002FB7F89484FF21C012968C911297892BC0
:10381000909512968C93129711968C9111979823EC
:1038200011969C932FBFC6CF8C010E94161BF801E6
:103830008685886086871092740181E080935F019D
:103840008C2FCF911F910F91089512968C91129702
:1038500090958923DECFCF93DF93EC0163E07DE188
:1038600088810E949B22FC018C819D81AE81BF8159
:10387000892B8A2B8B2B51F420E0F89492A19D7F09
:10388000922B92A37894DF91CF91089522E0F5CF07
:10389000CF93DF93EC0163E07DE188810E949B225E
:1038A000FC014C815D816E817F81F89486859785CE
:1038B000892B61F4448355836683778392A19F7A31
:1038C000906192A37894DF91CF91089586E10E9450
:1038D00009130F931F93CF93DF938C0163E07DE176
:1038E000DC018C910E949B22EC018FB7F894E0914F
:1038F0006B01F0916C01309709F47FC02081318118
:1039000030936C0120936B018FBFD80114964D91B9
:103910005D916D917C91179740835183628373838E
:1039200018968D919C91199797838683892B09F41A
:1039300067C0D8011C968D919C911D9795838483B7
:10394000118610861286F8948AA1282F217081FB97
:10395000992790F9291729F091E08927928591609C
:103960009287982F9F7D268137812130310549F13B
:10397000892F8F7E2E853F85232B91F08AA38A8DF8
:103980009B8D892BB9F1AC8DBD8DED93FC93389651
:10399000FD8FEC8F7894DF91CF911F910F91089557
:1039A00096FD18C08AA3FB8FEA8FCE010E94831E6A
:1039B000CE010E94632B7894DF91CF911F910F91DC
:1039C00008952285222311F09062D2CF84FFD0CFB8
:1039D0009062CECF80916B0190916C019183808336
:1039E000F0936C01E0936B017894DF91CF911F917C
:1039F0000F910895FB8FEA8FCACF8FE00E940913C1
:103A000087E10E9409130F931F93CF93DF938C01DB
:103A100043E250E063E07DE1FC0180810E942023CD
:103A2000EC01F80180899189A289B389892B8A2BBD
:103A30008B2BA9F560E06AA3F80184810E949C2980
:103A4000688B798B8A8B60E0F80180850E949C29C5
:103A50006B8B7C8B8D8BF80184859585A685B785CE
:103A60008E8F9F8FA8A3B9A380E090E0A0E0B0EC78
:103A70008E8B9F8BA88FB98F80916101909162018D
:103A8000892B79F48091600190E00B971CF48BE016
:103A900080936001DF91CF911F910F91089564E0B1
:103AA000CACF0E946B0CCF92DF92EF92FF92FC0183
:103AB00040815181628173812481EDE0FCE0859138
:103AC0009591A591B491481759076A077B0770F53E
:103AD0006A017B01C20ED11CE11CF11C8C159D05F5
:103AE000AE05BF0500F5841B90E09A0125503D4FBF
:103AF0003F932F939F938F937F936F935F934F93F6
:103B000082E99CE09F938F930E9410138DB79EB71C
:103B10000A960FB6F8949EBF0FBE8DBFFF90EF9030
:103B2000DF90CF900895822F90E0DFCF80E090E08B
:103B3000DCCF80917201882329F0823011F010923D
:103B40007201089582E00E94091388E00E9409131F
:103B5000CF92DF92EF92FF920F931F930E94D52A8C
:103B60009F938F937F936F9301E010E020E030E00C
:103B7000C0906701D0906801E0906901F0906A01FF
:103B80006C157D058E059F0518F000E010E098018A
:103B90008091630190916401A0916501B0916601EB
:103BA000800F911FA21FB31FBF93AF939F938F935B
:103BB00088E89CE09F938F930E9410138DB79EB767
:103BC0000A960FB6F8949EBF0FBE8DBF1F910F913E
:103BD000FF90EF90DF90CF9008950E94D52A9F9399
:103BE0008F937F936F9383E89CE09F938F930E94C2
:103BF00010130F900F900F900F900F900F9008954B
:103C0000FF920F931F93CF93DF93EC01FC844F2D12
:103C100050E0440F551F455E5F4F60E07EE18881B4
:103C20000E9420238C0168858C810E949418F801E1
:103C3000608771878287F08E81E0818FDF91CF91DD
:103C40001F910F91FF900895EF92FF920F931F9392
:103C5000CF938C0160E07EE1FC0180810E949B2279
:103C60007C01F801C481FC01808DC817A0F463E0D9
:103C70007DE1F80180850E949B22EC2FF0E0EE0FA1
:103C8000FF1FEE0DFF1D948F838FCF911F910F911A
:103C9000FF90EF9008958AE10E940913CF93FC01F1
:103CA000C08163E07DE18C2F0E949B22FC01F8948F
:103CB00086899789A08DB18D26853785821B930BC8
:103CC000A109B109B7FF07C0B095A095909581955E
:103CD0009F4FAF4FBF4F7894B054BF93AF939F9314
:103CE0008F931F92CF938FE69CE09F938F930E94B8
:103CF00010138DB79EB708960FB6F8949EBF0FBEEF
:103D00008DBFCF910895CF92DF92EF92FF920F93E4
:103D10001F93CF93DF93FC01A28DB38D109709F40D
:103D200073C04D915D916D917C91139704811581C4
:103D300026813781040F151F261F371F0483158323
:103D40002683378314968D919C9115979587848748
:103D50008C01092E000C220B330B400F511F621FE8
:103D6000731F4087518762877387892BB9F582A1BA
:103D7000877F82A316964D915C9117975787468748
:103D80001A968C911A9780FD2CC006891789208D70
:103D9000318D68017901C40ED51EE11CF11CC68A63
:103DA000D78AE08EF18E18968D919C911997938FFA
:103DB000828F80916B0190916C0111969C938E93F0
:103DC000B0936C01A0936B0181E0DF91CF911F91C3
:103DD0000F91FF90EF90DF90CF90089582A18860BF
:103DE000C8CF60E070E006891789208D318D401BB7
:103DF000510B620B730B468B578B608F718FC3898E
:103E0000D48985898883CFCF44855585052E000CBC
:103E1000660B770B80859185A285B385841B950BF6
:103E2000A60BB70B468D578D60A171A1841795071E
:103E3000A607B70718F482A185FF04C01786168667
:103E400080E0C3CF89E10E940913CF93DF93EC0197
:103E50000E942D2B1C821D821E821F828E899F89AB
:103E6000A88DB98D2E853F85821B930BA109B109C1
:103E7000B7FD39C0B095A095909581959F4FAF4FF4
:103E8000BF4F8E8B9F8BA88FB98F1F861E868AA1EE
:103E9000847080648AA36B897C898D8940E00E944C
:103EA000CD184AA14470688979898A890E94CD1801
:103EB000EA8DFB8D3097A1F030916B0120916C0160
:103EC00001C0FC018085918530832183F0936C01D2
:103ED000E0936B013E2F2F2F009799F71B8E1A8EC0
:103EE000DF91CF910895B095A095909581959F4FC2
:103EF000AF4FBF4FBFCF0F931F93CF93FC01A08550
:103F0000B1859C9182858923E9F0878980958170AC
:103F1000E1F4828D815061F1828F44815581668107
:103F2000778187859089A189B289840F951FA61F03
:103F3000B71F84839583A683B78381E0CF911F91B8
:103F40000F9108958789817021F386ED9FE1938316
:103F5000828383899489A589B68984839583A6837E
:103F6000B783818D828F81E0CF911F910F9108954A
:103F70008F0184E0878BC08DC15070F0EC2FF0E092
:103F8000EE0FFF1FE00FF11F838D948D009711F04E
:103F90000E94251FC15090F71092740181E0809318
:103FA0006D0180E0CF911F910F9108950F931F93A2
:103FB000FC01A085B1859C91048115812681378102
:103FC0004385548565857685400F511F621F731F99
:103FD0008285892361F087898095817059F04483B7
:103FE00055836683778381E01F910F9108958789B8
:103FF0008170A9F7438B548B658B768B8BE79FE1A0
:1040000093838283CF011F910F910C947B1FFC013E
:1040100092899460928B1092740181E080936E017A
:1040200080E008950F931F93CF93DF938C0144E4B6
:1040300050E062E170E2FC0180810E942023EC01EB
:1040400087E090E29B838A836CED70E1F8018481C4
:104050000E949B229D878C87DF91CF911F910F91AA
:104060000895CF93DF93EC0144969F938F938B89B0
:104070001F928F938F858F938E858F931F926F934F
:104080008DE39CE09F938F930E9410131B8A8E8573
:104090009F8501969F878E878DB79EB70A960FB62C
:1040A000F8949EBF0FBE8DBFDF91CF910895CF9240
:1040B000DF92EF92CF93DF93EC0160E08C810E945E
:1040C0009C296B01E82E4DE050E067E570E28881A5
:1040D0000E942023FC01C082D182E28288859985DA
:1040E000948383838C859D85AE85BF8581879287E8
:1040F000A387B487DF91CF91EF90DF90CF900895A1
:104100004F925F926F927F928F929F92BF92CF92C7
:10411000DF92EF92FF920F931F93CF93DF938C0167
:1041200067E570E2FC0180810E949B22EC01F801AE
:10413000848180849184CD80DE80EF80F88498E053
:10414000B92E8401080F111D49845A846B847C8424
:104150000E94D52ADC01CB018C199D09AE09BF094B
:1041600084159505A605B70598F3688179818A813C
:10417000A0918400B0918500EB80FC8064010C1557
:104180001D0509F44DC0F60191916F0128E013C09F
:10419000F8944091840050918500FB0180838083D6
:1041A0007894FA01EA1BFB0BEE15FF05D8F4990F82
:1041B000DA01215021F397FFEBCFF894409184006E
:1041C00050918500FB0180837894FA01EA1BFB0B78
:1041D000EE15FF0538F4990FF894FB01808378946D
:1041E000DA01E7CF40E00E94CD180E94D52A6B018A
:1041F0007C016D837E838F839887BA94B110A4CF9E
:10420000DF91CF911F910F91FF90EF90DF90CF90B2
:10421000BF909F908F907F906F905F904F90089588
:104220000E94D52A6D837E838F839887E9CFDF92A2
:10423000EF92FF920F931F93CF93DF93EC01D888F7
:1042400083E08D15B0F16CED70E188810E949B22B6
:104250007C018AE090E00E94FD228C0161E08C816B
:104260000E949418F80160837183828360E08885DE
:104270000E949C29F80163837483858360E08C85A8
:104280000E949C29F801668377838087D186F70195
:104290008581982F967081F4F701118300838260E5
:1042A0008583DF91CF911F910F91FF90EF90DF9069
:1042B00008958CE10E9409130E944A11CF92DF9267
:1042C000EF92FF920F931F93CF93DF93CDB7DEB79B
:1042D00029970FB6F894DEBF0FBECDBF8C01F62E26
:1042E0009E012F5F3F4F89E0F90111928A95E9F70E
:1042F00082EF898349E061E0F801848595850E9419
:10430000EB11F801A389B0E05496A00FB11F86E02D
:10431000FE01329601900D928A95E1F7F8018389AA
:104320008A5F838B8B3208F044C089858F778F3109
:1043300060F0F801208931892F3FFFEF3F0729F016
:104340002F5F3F4FF801318B208B82508F31B0F1BE
:10435000F801828981FD0FC029960FB6F894DEBF5F
:104360000FBECDBFDF91CF911F910F91FF90EF90C6
:10437000DF90CF900895C8010E942D2BF80182890B
:104380008B7F828BF8940E94D52AF801C084D18457
:10439000E284F384DC01CB018C0D9D1DAE1DBF1D9D
:1043A00084839583A683B783C8010E94632B789486
:1043B000D3CF6F2DC8010E943120B7CF1092740166
:1043C00081E080936E01C8CF5F926F927F928F924F
:1043D0009F92AF92BF92CF92DF92EF92FF920F9394
:1043E0001F93CF93DF9300D0CDB7DEB76C01FC01F4
:1043F000E08062E170E28E2D0E949B228C01F6012A
:1044000080859185A285B385892B8A2B8B2B99F189
:10441000C8010E942D2BF60184819581A681B78168
:10442000F80184839583A683B783F60180859185FF
:10443000A285B385F80180879187A287B38781E041
:10444000828B118A108A17861686138AC8010E94E9
:10445000632B0F900F90DF91CF911F910F91FF90E1
:10446000EF90DF90CF90BF90AF909F908F907F9014
:104470006F905F900895C8010E942D2BF801128A59
:104480008DE289831A820E94D52AC62EB72EA82EC5
:10449000992E9E012F5F3F4F42E060E0F801848536
:1044A00095850E94EB110E94D52A862E772E682EC4
:1044B000592E81E2F82E99EBD92E07C06E2DC80136
:1044C0000E945E21FA94FF2079F0D9821A829E011F
:1044D0002F5F3F4F42E061E0F801848595850E949F
:1044E000EB118A818F7351F7F8018389882321F0BA
:1044F0006E2DC8010E943120F80187858F93868533
:104500008F9381898F9380898F935F926F927F922F
:104510008F929F92AF92BF92CF921F92EF9287E4B9
:104520009CE09F938F930E9410130FB6F894DEBF08
:104530000FBECDBF8ECF90915401891788F4E091C2
:104540005501F091560194E0899FE00DF11D112471
:10455000808191818617970719F48281938108954C
:104560008CE00E940913CF92DF92EF92FF92CF93DB
:10457000DF93C0916101D09162012097B9F1219739
:104580006E01E12CF12CA0916001B0E02097D9F0F0
:1045900020E030E040E050E0BA0180915901909174
:1045A0005A01FC01E20FF31F4F5F5F4F6F4F7F4FC8
:1045B0002A0F3B1F820F931F918380834C155D054B
:1045C0006E057F0550F38091590190915A01CA9F61
:1045D000F001CB9FF00DDA9FF00D1124E80FF91FC9
:1045E0001182108290936C0180936B01DF91CF91C7
:1045F000FF90EF90DF90CF900895CF93DF93C0911D
:104600005701D0915801AE01480F591F2DB73EB741
:1046100021503F4F22273A952417350770F05093C9
:10462000580140935701AC0160E070E0CE010E9458
:10463000EE2CCE01DF91CF91089581E10E94091304
:10464000CF93DF9390915401891730F5C82FD0E0B4
:10465000CC0FDD1FCC0FDD1FE0915501F09156010D
:10466000EC0FFD1F80819181892BB1F48091610154
:1046700090916201892B81F471836083CA010E9449
:10468000FD222091550130915601C20FD31F9B830B
:104690008A83DF91CF9108958BE00E940913FC017A
:1046A00087859089A085B185228521112AC02FB7E1
:1046B000F894992711969C938E932FBF2785308964
:1046C0008189928928173907D1F083859485A5853A
:1046D000B6850097A105B10591F0448155816681A9
:1046E0007781840F951FA61FB71F84839583A683A8
:1046F000B7838FED93E29383828381E0089580E016
:1047000008958C93DBCFFC014481558166817781CC
:10471000208580810C940A250F931F93CF93DF93FC
:104720008C0162EB73E2FC0180810E949B22EC0110
:104730000E942D2B8FE493E29B838A83F80184816E
:104740009581A681B7818C839D83AE83BF8380854D
:104750009185988B8F87CE01DF91CF911F910F911B
:104760000C94632BCF92DF92EF92CF93DF93EC0107
:10477000488559856A857B852C858C810E940A2510
:104780006B01E82E43E150E062EB73E288810E9406
:104790002023FC01C086D186E28688899989928B84
:1047A000818B8C899D89AE89BF8983879487A587F2
:1047B000B687DF91CF91EF90DF90CF90089581E29F
:1047C0000E940913CF93DF93EC0169E87CE08881B4
:1047D0000E949B22488559856C81FC018081DF9174
:1047E000CF910C9449182F923F924F925F926F9203
:1047F0007F928F929F92AF92BF92CF92DF92EF9271
:10480000FF920F931F93CF93DF9300D01F92CDB7EA
:10481000DEB77C012DB73EB73B832A8369E87CE095
:10482000DC018C910E949B223C01F701F481F98309
:10483000F701A085B185AD010485158526853785ED
:1048400000FD6FC0180129015694479437942794AE
:10485000F701C088D188F981EF2EF12CA22CB12C60
:10486000C7018A0D9B1D2DB73EB7281B390B0FB60C
:10487000F8943EBF0FBE2DBF8DB79EB701964C0179
:10488000E114F10449F0FC019C012E0D3F1D8D91B6
:104890008193E217F307D9F7E80CF91C8701222D61
:1048A0006981D3018C910E94BF17A114B104A9F0B2
:1048B0009601220D331DF701AC0CBD1CD6018D9164
:1048C0006D018095908189238083D9019D919D01FF
:1048D000892B8193AC14BD0489F76981620DA40111
:1048E000F30180810E944918EA81FB810FB6F89498
:1048F000FEBF0FBEEDBF0F900F900F90DF91CF91D5
:104900001F910F91FF90EF90DF90CF90BF90AF90ED
:104910009F908F907F906F905F904F903F902F90DF
:10492000089580E20E940913AF92BF92CF92DF9266
:10493000EF92FF920F931F93CF93DF93CDB7DEB724
:104940007C01ADB6BEB6FC01C08069E87CE08C2D70
:104950000E949B22F701648140855185D4842DB744
:104960003EB72D1931090FB6F8943EBF0FBE2DBFCB
:10497000EDB7FEB731967F018F012D2DFC018081AF
:104980000E94BF17FF92EF921F92DF921F92CF9269
:1049900086E59CE09F938F930E9410132DB73EB73E
:1049A000285F3F4F0FB6F8943EBF0FBE2DBF0FB626
:1049B000F894BEBE0FBEADBEDF91CF911F910F9197
:1049C000FF90EF90DF90CF90BF90AF900895CF937E
:1049D000DF93DC011C96ED91FC911D971E969C9136
:1049E0001E971F96CD91DC91509751962C9188E09F
:1049F00005C09083660F9083815049F067FFF9CF1F
:104A0000288360959083660F90838150B9F7DF917A
:104A1000CF910895CF92DF92EF92FF921F93CF93A1
:104A2000DF936A017B016EEA7CE0FB0194919817A9
:104A300049F0675F7F4FFCE0663F7F07B1F780E397
:104A40000E940913FB013896949191FF19C030EA36
:104A5000C3163FE5D306E104F10408F081C0A8EDD8
:104A6000CA16A7E2DA06E104F10408F08AC0B7EF3B
:104A7000CB16B8E0DB06E104F10488F012E010C0C8
:104A8000F8EBCF16F7E4DF06E104F10408F057C0B5
:104A900037EFC31638E0D306E104F10478F711E0EC
:104AA000FB013396A591B491FB013596C591D49144
:104AB000FB0137963491E82FE695E695E695F0E010
:104AC000EE0FFF1FEA55F34F459154918770E1E0D7
:104AD000F0E07F0101C0EE0C8A95EAF7FB01319608
:104AE000C590D490892F8170A038B10509F45CC0BD
:104AF000EFB7F8949881977011F0191352C018838A
:104B000081114AC09FB7F894622F70E0E601798363
:104B100068839FBF9C913160392B3C93DA011196D9
:104B20009C911197E92A1196EC92EFBFB601DF91A3
:104B3000CF911F91FF90EF90DF90CF900895A0EC60
:104B4000CA16AEE3DA06A1E0EA06F104D0F0C11419
:104B5000BBEFDB06B4E0EB06F10488F414E0A0CF71
:104B6000C0E8CC16CEE7DC06C1E0EC06F10458F450
:104B7000D0E4CD16DFEBDD06E104F10478F315E0B7
:104B80008FCF13E08DCFC114EBEFDE06E4E0EE062D
:104B9000F10428F416E084CFE6012883BBCF17E0A8
:104BA0007FCF8EE20E9409138FE20E9409130F93B8
:104BB0001F93FC01A0A1B1A182A18C9394A181E0DB
:104BC000892784A3448155816681778180FF12C043
:104BD0000085118522853385400F511F621F731F89
:104BE00082FD12C0448355836683778381E01F91E1
:104BF0000F9108950485158526853785400F511F2F
:104C0000621F731F82FFEECF0089118922893389C9
:104C1000872F401751076207830B87FDE3CF8CE591
:104C200097E293838283B901A80144835583668305
:104C3000778381E01F910F9108958F929F92AF9299
:104C4000BF92CF92DF92EF92FF920F931F93CF9379
:104C5000DF938C0166EF76E2FC0180810E949B224B
:104C6000EC01F801C480D580E680F780408551854D
:104C700062857385411551056105710509F462C0AE
:104C80000485158526853785011511052105310512
:104C900009F07CC09CE1E1E0F0E0452B462B472B7E
:104CA00009F458C02BA130E0E217F30749F04C8D0E
:104CB0005D8D6E8D7F8D452B462B472B09F04DC0AA
:104CC00000E010E0980140E050E0BA01F8948CA1B7
:104CD00082FD4EC0C88AD98AEA8AFB8A4C8B5D8BDA
:104CE0006E8B7F8B088F198F2A8F3B8F8F70892B4C
:104CF0008CA381FF0BC04C815D816E817F81872FEA
:104D00004C155D056E058F0987FD0EC0CE010E9412
:104D10002D2BCC82DD82EE82FF828CE597E29B8395
:104D20008A83CE010E94632B7894DF91CF911F91EB
:104D30000F91FF90EF90DF90CF90BF90AF909F903A
:104D40008F9008959CE0E1E0F0E0452B462B472B47
:104D500009F0A8CFE0E0F0E0A5CF906400E010E01B
:104D6000980140E050E0BA01F8948CA182FFB2CFE4
:104D700088889988AA88BB88EB2D8C149D04AE0482
:104D8000EF09E7FFA7CF83E10E9409138C8D9D8D6A
:104D9000AE8DBF8D892B8A2B8B2B11F09CE796CF84
:104DA0009CE394CF0F931F93CF93DF938C0165E324
:104DB00077E2FC0180810E949B22EC010E942D2B56
:104DC00080EC97E29B838A83F80184819581A68198
:104DD000B7818C839D83AE83BF8380858F87CE010F
:104DE000DF91CF911F910F910C94632BCF92DF92A3
:104DF000EF92CF93DF93EC0161E088859985AA85D6
:104E0000BB85892B8A2B8B2B09F460E08C810E9457
:104E10009C296B01E82E45E250E066EF76E288813E
:104E20000E942023FC01C0A2D1A2E2A281E04C8515
:104E30005D856E857F85452B462B472B09F480E0E9
:104E400083A3488959896A897B89448F558F668FE6
:104E5000778F84A3DF91CF91EF90DF90CF9008956B
:104E6000FC01648180810C949C29CF92DF92EF92A7
:104E7000CF93DF93EC0168858C810E949C296B01A4
:104E8000E82E41E150E065E377E288810E9420232B
:104E9000FC01C086D186E2868C85808B88899989C1
:104EA000AA89BB8983879487A587B687DF91CF912D
:104EB000EF90DF90CF9008951F93CF93DF93EC0195
:104EC0001CA113FF5AC012951F701CA3412F4170E3
:104ED00068A179A18AA10E94CD1811FD1DC0812F62
:104EE000847012FF46C0488959896A897B898C8DF4
:104EF0009D8DAE8DBF8D840F951FA61FB71F888B0C
:104F0000998BAA8BBB8B8C839D83AE83BF8381E0FF
:104F1000DF91CF911F91089587ED95E29B838A835E
:104F2000888D998DAA8DBB8D8C879D87AE87BF8715
:104F30004C895D896E897F89488759876A877B8715
:104F400088899989AA89BB89480F591F6A1F7B1FC5
:104F50004C835D836E837F834C8D5D8D6E8D7F8DE5
:104F6000840F951FA61FB71F888B998BAA8BBB8BAD
:104F700081E0DF91CF911F91089584E10E94091390
:104F8000CF93DF93EC01688579858A854F850E94F0
:104F9000CD189F8588899817E1F08B859C85AD8514
:104FA000BE850097A105B105A1F04C815D816E81A0
:104FB0007F81840F951FA61FB71F8C839D83AE83AF
:104FC000BF8386E09CE09B838A8381E0DF91CF9161
:104FD000089580E0DF91CF9108950F931F93CF93B1
:104FE000DF938C0165E377E2FC0180810E949B22C4
:104FF000EC010E942D2BF8011481688579858A8542
:10500000412F0E94CD188889181741F08B859C8507
:10501000AD85BE85892B8A2B8B2B29F4DF91CF910F
:105020001F910F9108950E94D52A0B851C852D850F
:105030003E85DC01CB01800F911FA21FB31F8C8323
:105040009D83AE83BF8386E09CE09B838A83CE01F1
:10505000DF91CF911F910F910C94632BCF93DF932E
:10506000DC0114969C911497C0E0D0E0FE01EA5058
:10507000F34FE4919E1739F02196C830D105B1F76E
:1050800089E20E94091387E980937A0030917E00BB
:1050900081E090E00C2E01C0880F0A94EAF7832B80
:1050A00080937E004FE150E06EE278E28C910E94A6
:1050B0002023FC0184E698E293838283C28F81E0FF
:1050C000858FDF91CF910895FC0180917A0086FF52
:1050D0000EC084819581A681B7818853984FAF4FC8
:1050E000BF4F84839583A683B78381E00895828D23
:1050F00090910001981761F09F3F59F7809300014C
:105100008770806480937C0087ED80937A00E1CF84
:105110008FEF809300012091780030917900858D88
:10512000968D891780F544895589240F351F8F5F27
:10513000358B248B858F891760F18689978928178D
:105140003907C8F1808D918D82179307A0F1138ED6
:105150001092740181E080936F01408951896289C6
:10516000738980859185A285B385840F951FA61FBD
:10517000B71F808B918BA28BB38B84839583A6837F
:10518000B78381E0089581E0358B248B858F891763
:10519000A0F6448155816681778184859585A685B1
:1051A000B785840F951FA61FB71F84839583A68399
:1051B000B78381E00895838D8F5F838F948D8917E6
:1051C00038F2809172018111C2CF8BE10E940913E4
:1051D0000F931F93CF93DF938C0160E07EE1FC017E
:1051E00080810E949B22EC010E942D2BF80184817A
:1051F0009581A681B7818C839D83AE83BF83808593
:105200009185A285B3858F87988BA98BBA8B84856E
:10521000898F882341F1F801408951896289738916
:105220004B875C876D877E8726ED3FE13B832A8332
:105230008A8F84899589A689B789892B8A2B8B2B9C
:1052400049F482E08F8BCE01DF91CF911F910F91B6
:105250000C94632B83E08F8BCE01DF91CF911F9154
:105260000F910C94632B1F8ADF91CF911F910F91A7
:105270000895F894DA019C91292F2B7F2C93789430
:10528000DB01ED91FC911197308112962C91232333
:1052900031E009F430E01F923F93969591701F9290
:1052A0009F931F928F938AE69CE09F938F930E9417
:1052B0001013EDB7FEB738960FB6F894FEBF0FBEC9
:1052C000EDBF0895CF93FC01C08160E07EE18C2F9B
:1052D0000E949B22AC01495E5F4FBC01685F7F4F1B
:1052E0008C2FCF910C943929B0990FC08091700107
:1052F00090917101019610921F0110921E019093DE
:1053000021018093200181E0089581E086BB809196
:1053100070019091710101969093710180937001D9
:1053200020E030E830931F0120931E01909321016B
:105330008093200181E00895803278F5E82FE6958A
:10534000E695E695F0E0EE0FFF1FEA55F34FA591C5
:10535000B491109711F1877021E030E0A90102C0EB
:10536000440F551F8A95E2F7CA013FB7F894129689
:105370002C91129761110FC04095242312962C9303
:10538000129711962C911197282B11962C93119707
:105390003FBFBD010895242BF1CF88E20E9409137D
:1053A0001F920F920FB60F9211240BB60F92EF922D
:1053B000FF920F931F932F933F934F935F936F939E
:1053C0007F938F939F93AF93BF93CF93DF93EF938D
:1053D000FF93C0912201D0912301EA81FB81309794
:1053E00009F067C0E889F9892A8920838E859F851D
:1053F000019709F4B6C09F878E8788859985AA850D
:10540000BB854C815D816E817F81480F591F6A1F6A
:105410007B1F4C835D836E837F8320832AA123FFC0
:105420000EC00C851D85012E000C220B330B800F46
:10543000911FA21FB31F88879987AA87BB87E8811E
:10544000F9810481158126813781872F4017510703
:105450006207830B87FD66C07801F0932301E09318
:105460002201DF010190F081E02D04811581268168
:105470003781872F401751076207830B87FFF1CFD2
:10548000F983E883CD93DC9380918400909185002B
:105490008E199F0997FD25C07894B29945C0F8945C
:1054A000C0912201D0912301EA81FB81309709F458
:1054B00099CFCE0109954C815D816E817F818111EB
:1054C000BECFE881F981E480F580F0932301E09379
:1054D000220180918400909185008E199F0997FF89
:1054E000DBCF863A9F4F0CF04FC0F0928900E092DC
:1054F0008800FF91EF91DF91CF91BF91AF919F9184
:105500008F917F916F915F914F913F912F911F915B
:105510000F91FF90EF900F900BBE0F900FBE0F906A
:105520001F9018957A01B0CFF894809184009091E3
:1055300085009701281B390B2038314CF4F020915D
:10554000740127FF26C09C01205C304E30938B00F5
:1055500020938A0024E026BB9093890080938800E2
:1055600093CFCE010E94831EE889F9899A8990839E
:105570004C815D816E817F81A2CF209172012111CA
:10558000DECF86E20E9409137894B299CDCFF894C9
:105590007BCF9C012854344F30938B0020938A009A
:1055A00024E026BB7C01F394A0CF2FB7F894609140
:1055B0008400709185008091700190917101B09983
:1055C00002C02FBF08952FBF7F3FE1F301960895DA
:1055D00078940E94F5142FEF260F6623C1F0FC018A
:1055E0008FEF9FEF31918327082E8295807F802552
:1055F000092E982F82958F700826869598278927DF
:10560000880F880F880F8025215060F708958FEF4D
:105610009FEF089580E0089510927401E2E1F1E0B7
:1056200084819581A681B781AC01BD015659674E31
:105630007F4F44835583668377839659A74EBF4730
:1056400080930E0190930F01A0931001B09311016C
:1056500081E0089584E00E9409134FB7F894E09127
:105660002201F0912301E817F90729F412C08217EB
:10567000930741F0F9012081318121153105B9F7F6
:105680004FBF0895DC018D919C91918380834FBF22
:10569000089584819581A681B781809305019093B7
:1056A0000601A0930701B093080180819181909336
:1056B00002018093010181E091E0909323018093A6
:1056C00022014FBF0895AF92BF92CF92DF92EF9227
:1056D000FF921F93CF93DF93DC011496CD90DD9062
:1056E000ED90FC9017971FB7F894C0912201D091CC
:1056F00023014C815D816E817F818F2DC416D5067B
:10570000E606870B87FD1FC0FE010990D881C02DDA
:105710004C815D816E817F819F2DC416D506E60682
:10572000970B97FFF1CF1196DC93CE93B183A083B3
:105730001FBFDF91CF911F91FF90EF90DF90CF902F
:10574000BF90AF9008955D010E94D52A2F2DC616F7
:10575000D706E806290B27FD25C081E0C130D80710
:1057600041F1F501D183C083C0920501D0920601B9
:10577000E0920701F0920801B0920201A0920101AB
:1057800081E091E090932301809322018091840035
:1057900090918500C296909389008093880082E062
:1057A00086BBC6CF809172018111D7CF83E00E9462
:1057B00009138091010190910201F5019183808389
:1057C000D3CFF89498E088E10FB6F894A895809329
:1057D00060000FBE90936000FFCF1F920F920FB634
:1057E0000F9211240BB60F928F93EF93FF93E091DA
:1057F000970280919602E817A0F481E08E0F8093C3
:105800009702F0E0EA5CFD4F80818093C600FF9133
:10581000EF918F910F900BBE0F900FBE0F901F90C6
:1058200018958091C1008F7D8093C100F0CF1F92A9
:105830000F920FB60F9211240BB60F928F939F9376
:10584000EF93FF938091C6008E37B9F0E091350257
:10585000E03C40F491E09E0F90933502F0E0EB586D
:10586000FE4F8083FF91EF919F918F910F900BBE20
:105870000F900FBE0F901F90189510927401E6CFF5
:105880001F920F920FB60F92112481E08093730143
:1058900081E30E940913DB018F939F930E94622C86
:1058A000BF91AF91A29F800D911DA39F900DB29FBC
:1058B000900D11240895692796276927782787274F
:1058C000782708950E946D2CA59F900DB49F900D90
:1058D000A49F800D911D11240895A29FB001B39F34
:1058E000C001A39F700D811D1124911DB29F700DE9
:1058F000811D1124911D0895DC012D923D924D9240
:105900005D926D927D928D929D92AD92BD92CD925F
:10591000DD92ED92FD920D931D93CD93DD93FF915A
:10592000EF918DB78D938EB78D938FB78D93ED9348
:10593000FD93882799270994DC01CB0181309105DB
:10594000811D2D903D904D905D906D907D908D903E
:105950009D90AD90BD90CD90DD90ED90FD900D911E
:105960001D91CD91DD91ED91FD910D90F894FEBFCB
:105970000FBEEDBFED91FD910994FB01DC0102C06A
:1059800005900D9241505040D8F70895FC014150C8
:10599000504030F001900616D1F73197CF010895AD
:1059A000882799270895FB01DC0102C001900D9220
:1059B00041505040D8F708956817790768F4FB0103
:1059C000DC01E40FF51FA40FB51F02C002900E9278
:1059D00041505040D8F708950C94D32CDC0101C0FD
:0E59E0006D9341505040E0F70895F894FFCFCA
:1059EE00FF00000A2B000000001000002A2B000010
:1059FE0000800A010C2B00000000000074290080BA
:045A0E000000120181
:00000001FF
